:020000042000DA
:10000000B711008093810180372200201302C2398A
:10001000B742008013810200130542C373105530AC
:1000200073102034EF2000053724002013044425EA
:100030000325040013044400E70005006FF05FFF90
:0C004000EF10904D6F0040006F000000BA
:10004C00130101FC232E1102232CA102232AB1023D
:10005C002328C102035541032326A1020355610342
:10006C002324A102035501032322A10203552103DA
:10007C002320A1020325C10283254102EF10505316
:10008C00232EA1000325C10283250102EF1050523B
:10009C00232CA1000325810283254102EF1050512E
:1000AC00232AA1000325810283250102EF10505061
:1000BC002328A1000325C1018325810323A0A500CA
:1000CC00032501018325810323A2A50003258101BA
:1000DC00131505012326A100032541011315050164
:1000EC002324A1000326C1008325810303A5050059
:1000FC003305C50023A0A5000325810303250500B6
:10010C008325C100637EB5006F0040008325810309
:10011C0003A545001305150023A2A5006F004000A0
:10012C00032681008325810303A505003305C50043
:10013C0023A0A50003258103032505008325810049
:10014C00637EB5006F0040008325810303A5450045
:10015C001305150023A2A5006F0040000356A10152
:10016C008325810303A545003305C50023A2A50003
:10017C00035661018325810303A545003305C500A2
:10018C0023A2A5008320C103130101046780000092
:10019C00130101FE232E1100232CA100232AB100F0
:1001AC002328C100032541012326A10003250101B9
:1001BC002324A1008325C10003268100130501001F
:1001CC00EFF01FE8032501008325810123A0A50082
:1001DC00032541008325810123A2A50003254101AC
:1001EC00930500006350B5026F00400003268100A8
:1001FC008325810103A545003305C54023A2A50035
:10020C006F00400003250101930500006350B50207
:10021C006F0040000326C1008325810103A5450022
:10022C003305C54023A2A5006F0040008320C10107
:08023C001301010267800000BC
:10024400130101FE232E1100232CA100232AB10047
:10025400832581010326410113058100EFF0DFF3BB
:10026400032581008320C10113010102678000007E
:10027400130101FE232E1100232CA100232AB10017
:10028400832581010326410113058100EFF0DFF08E
:100294000325C1008320C10113010102678000000E
:1002A400130101FE232E1100232CA100232AB100E7
:1002B400832581010326410113058100EFF0DFD876
:1002C4000325C1008320C1011301010267800000DE
:1002D400130101FE232E1100232CA100232AB100B7
:1002E400832581010326410113058100EFF0DFEA34
:1002F4000325C1008320C1011301010267800000AE
:10030400130101FF2326A1001301010167800000EE
:10031400130101FF2326A1001301010167800000DE
:10032400130101FF2326A100A305B100130500005A
:100334002304A1006F004000034581008345B10000
:100344006358B5086F0040000305B100131525007C
:1003540083058100939525003305B5401305C5FF3A
:100364002305A1000325C1008345A1003355B50031
:100374001375F500A304A1008345910013059000B3
:10038400634CB5006F00400003459100130505035D
:100394002322A1006F00400103459100130575035A
:1003A4002322A1006F004000032541008345810002
:1003B40013864194B385C5002380A5006F004000D7
:1003C40003058100130515002304A1006FF0DFF677
:1003D4008345B100138541943386A500930500003D
:0C03E4002300B600130101016780000037
:1003F000130101FF23261100130500002324A1008F
:100400009305A2D7EF004016930505000325810050
:100410003305B5002324A1009305E2D7130510018D
:10042000EF00801493050500032581003305B50016
:100430002324A100930562D813052001EF00C01208
:1004400093050500032581003305B5002324A10091
:100450009305E2D813053001EF0000119305050064
:10046000032581003305B5002324A100930562D93B
:1004700013054001EF00400F93050500032581009F
:100480003305B5002324A1009305C2CD1305500107
:10049000EF00800D93050500032581003305B500AD
:1004A0002324A100930532CE13056001EF00C00B99
:1004B00093050500032581003305B5002324A10021
:1004C0009305B2D113058001EF00000A93050500E2
:1004D000032581003305B5002324A1009305E2D94B
:1004E0001305A001EF0040089305050003258100D6
:1004F0003305B5002324A100930502D21305B001F2
:10050000EF00800693050500032581003305B50043
:100510002324A1009305D2CE1305E001EF00C0040F
:1005200093050500032581003305B5002324A100B0
:10053000930562DA1305F001EF000003930505004F
:10054000032581003305B5002324A1008325810004
:10055000130592D2EF105020032581008320C100A3
:08056000130101016780000096
:10056800130101EA232E1114A30BA1142328B1149B
:10057800834571152326B1041305E0016364B55062
:100588000325C10413152500B7150020938505AE72
:100598003305B50003250500670005009305000035
:1005A8002324B1042324B1141385018013064014B5
:1005B800EF10407E1305811493054000EF00805929
:1005C8002326A1148325C114032601151305A2D3DC
:1005D800EF101018832581040325C114630AB500A0
:1005E8006F00400013051000232CA1146F00C04DAC
:1005F8006F00C04C930522DB1305C1112320A10411
:100608001306C002232EC102EF10807613850180E5
:10061800930500002322B10413064014EF108077DD
:100628008325C10303250104EF00C0522326A1142A
:100638008325C114032601151305A2D3EF10501109
:10064800832541040325C114630AB5006F004000E7
:1006580013051000232CA1146F0000476F000046FB
:100668009305E2DD1305010F232AA1021306C00238
:100678002328C102EF10C06F138501809305000085
:10068800232CB10213064014EF10C0708325010318
:1006980003254103EF00004C2326A1148325C11430
:1006A800032601151305A2D3EF10900A83258103B1
:1006B8000325C114630AB5006F004000130510003C
:1006C800232CA1146F0040406F00403F37B5597785
:1006D800130535A12326A10E37B50F0F130535A134
:1006E8002324A10E37B55678130515A12322A10E90
:1006F80013850180930500002326B10213064014D8
:10070800EF1040691305410E9305C000EF008044C7
:100718002326A1148325C114032601151305A2D38A
:10072800EF1010038325C1020325C114630AB50025
:100738006F00400013051000232CA1146F00C0386F
:100748006F00C03737B5F9F8130515A12320A10E9E
:1007580037B50F0F130545A1232EA10C37B55678D1
:10076800130515A1232CA10C138501809305000006
:100778002324B10213064014EF10C0611305810D44
:100788009305C000EF00003D2326A1148325C11462
:10079800032601151305A2D3EF10807B8325810260
:1007A8000325C114630AB5006F004000130510004B
:1007B800232CA1146F0040316F00403037B5A08161
:1007C800130515A1232AA10C37B50F0F130555A141
:1007D8002328A10C37B55678130515A12326A10C9B
:1007E80013850180930500002322B10213064014EB
:1007F800EF10405A1305C10C9305C000EF00803577
:100808002326A1148325C114032601151305A2D399
:10081800EF100074832541020325C114630AB50053
:100828006F00400013051000232CA1146F00C0298D
:100838006F00C02837B5A988130515A12324A10C7A
:1008480037B50008930575A12322B10C130565A1DE
:100858002320A10C37B55678130515A1232EA10A1C
:1008680013850180930500002320B102130640146C
:10087800EF1040521305C10B93050001EF00802DC6
:100888002326A1148325C114032601151305A2D319
:10089800EF10006C832501020325C114630AB5001B
:1008A8006F00400013051000232CA1146F00C02115
:1008B8006F00C02037B57778130515A1232CA10A3E
:1008C80037B50010930585A1232AB10A130565A140
:1008D8002328A10A37B58888130515A12326A10A5C
:1008E8001385018093050000232EB10013064014E0
:1008F800EF10404A1305C10A93050001EF00802557
:100908002326A1148325C114032601151305A2D398
:10091800EF1000648325C1010325C114630AB500E3
:100928006F00400013051000232CA1146F00C0199C
:100938006F00C0189305A2E013058108232AA100BF
:10094800130640022328C100EF108042138501805E
:1009580093050000232CB10013064014EF108043C8
:100968008325010103254101EF00C01E2326A114A0
:100978008325C114032601151305A2D3EF10405D8A
:10098800832581010325C114630AB5006F00400067
:1009980013051000232CA1146F0000136F00001220
:1009A80037B5FFFF130515A12322A10837A599998B
:1009B8001305B5012320A10837A56666130515019F
:1009C800232EA10613850180930500002326B1007C
:1009D80013064014EF10003C1305C1079305C0002F
:1009E800EF0040172326A1148325C11403260115FF
:1009F8001305A2D3EF10C0558325C1000325C114E8
:100A0800630AB5006F00400013051000232CA114E1
:100A18006F00800B6F00800A9305E2E21305010561
:100A28002322A1001306C0022320C100EF10403486
:100A380013850180930500002324B1001306401498
:100A4800EF1040358325010003254100EF00801099
:100A58002326A1148325C114032601151305A2D347
:100A6800EF10004F832581000325C114630AB500E8
:100A78006F00400013051000232CA1146F00C00460
:100A88006F00C003130510002326A1148325C11489
:100A9800032601151305A2D3EF10804B0325C114BB
:100AA80093050000630AB5006F00400013051000AD
:100AB800232CA1146F0040016F00400013050000B3
:100AC800232CA1146F004000032581158320C11534
:080AD800130101166780000004
:100AE000A40500208C0A00208C0A00208C0A00201B
:100AF0008C0A00208C0A00208C0A00208C0A00201E
:100B00008C0A00208C0A00208C0A00208C0A00200D
:100B10008C0A00208C0A00208C0A00208C0A0020FD
:100B20008C0A0020FC05002068060020D406002066
:100B30004C070020C40700203C0800208C0A00203D
:100B4000BC0800208C0A00203C090020A8090020D5
:0C0B50008C0A00208C0A0020200A0020E3
:100B5C00130101F9232611062324A1062322B10631
:100B6C00130500002328A100A301A1062301A1065F
:100B7C00A300A1062300A106231FA104232CA1047A
:100B8C00232AA104138501802326A1002328A10474
:100B9C00032501052326A104032501051305450C96
:100BAC002324A10403250105130545042322A104D4
:100BBC00032581048325810603264106EF10001BC3
:100BCC008325C1000325010123A0A5046F0040006B
:100BDC00138501800325050483254106E376B5546E
:100BEC006F0040001385018003250504232CA1040C
:100BFC0003258104832581053305B5002320A10439
:100C0C000325010403050500A301A10603453106D4
:100C1C001375050F2324A100930500006308B51C70
:100C2C006F0040000325810093050001630EB51091
:100C3C006F0040000325810093050002630CB50C86
:100C4C006F00400003258100930500036304B50C7D
:100C5C006F00400003258100930500046306B50E68
:100C6C006F0040000325810093050005630CB5104F
:100C7C006F00400003258100930500066302B51444
:100C8C006F0040000325810093050007630AB5122D
:100C9C006F00400003258100930500086304B50E26
:100CAC006F00400003258100930500096300B51413
:100CBC006F004000032581009305000A6306B50808
:100CCC006F004000032581009305000B630CB50AEF
:100CDC006F004000032581009305000C6306B506E8
:100CEC006F004000032581009305000D630EB504D1
:100CFC006F004000032581009305000E6306B504C8
:100D0C006F004000032581009305000F630CB506AE
:100D1C006F00000E03250104034515001355450013
:100D2C002300A106032501040345250013554500A6
:100D3C002301A10603250104034535001355450085
:100D4C00A300A1066F00C00A03250104034515008A
:100D5C00135545002300A106032501040345150086
:100D6C001375F5002301A1068325010403852500D5
:100D7C001315850083C535003365B500231FA10409
:100D8C006F000007032501040345150013554500AA
:100D9C002301A10603250104034515001375F50075
:100DAC00A300A106832501040385250013158500E6
:100DBC0083C535003365B500231FA1046F004003C4
:100DCC000325010403451500135545002300A10616
:100DDC0083250104038525001315850083C5350083
:100DEC003365B500231FA1046F0080006F00400025
:100DFC000325C10483450106939525003305B500F1
:100E0C00232EA1020325C1048345210693952500B9
:100E1C003305B500232CA1020325C104834511061B
:100E2C00939525003305B500232AA1028325C1041F
:100E3C001305000023A0A500834531062322B10031
:100E4C001305400FE364B52A032541001315250053
:100E5C00B7250020938545943305B500032505007F
:100E6C00670005006F00502A032581030325050048
:100E7C008325410383A505003305B5008325C103F4
:100E8C0023A0A5006F00502803258103032505002E
:100E9C008325410383A505003305B5408325C10394
:100EAC0023A0A5006F005026032581030325050010
:100EBC008325410383A505003345B5008325C10374
:100ECC0023A0A5006F0050240325810303250500F2
:100EDC008325410383A505003375B5008325C10324
:100EEC0023A0A5006F0050220325810303250500D4
:100EFC008325410383A505003365B5008325C10314
:100F0C0023A0A5006F0050200325810303250500B5
:100F1C008325410383A505003315B5008325C10343
:100F2C0023A0A5006F00501E032581030325050097
:100F3C008325410383A505003355B5008325C103E3
:100F4C0023A0A5006F00501C032581030325050079
:100F5C008325410383A505003355B5408325C10383
:100F6C0023A0A5006F00501A03258103032505005B
:100F7C008325410383A505003325B5008325C103D3
:100F8C0023A0A5006F00501803258103032505003D
:100F9C008325410383A505003335B5008325C103A3
:100FAC0023A0A5006F00501603258103032505001F
:100FBC008325410383A50500EFF00FA88325C1030A
:100FCC0023A0A5006F005014032581030325050001
:100FDC008325410383A50500EFF00FA98325C103E9
:100FEC0023A0A5006F0050120325810303250500E3
:100FFC008325410383A50500EFF00FAA8325C103C8
:10100C0023A0A5006F0050100325810303250500C4
:10101C008325410383A50500EFF00FAB8325C103A6
:10102C0023A0A5006F00500E0325810303250500A6
:10103C008325410383A50500EF00105B8325C103C5
:10104C0023A0A5006F00500C032581030325050088
:10105C008325410383A50500EF0010668325C1039A
:10106C0023A0A5006F00500A03258103032505006A
:10107C008325410383A50500EF00D05D8325C103C3
:10108C0023A0A5006F00500803258103032505004C
:10109C008325410383A50500EF0090668325C103DA
:1010AC0023A0A5006F00500603258103032505002E
:1010BC008315E1053305B5008325C10323A0A500E5
:1010CC006F00900403258103032505008315E105BA
:1010DC003305B5408325C10323A0A5006F00D002C2
:1010EC0003258103032505008355E1053345B50030
:1010FC008325C10323A0A5006F00100103258103E4
:10110C00835505000355E1053375B5008325C103EF
:10111C0023A0A5006F00407F032581030325050054
:10112C008355E1053365B5008325C10323A0A500D4
:10113C006F00807D03258103032505008355E105A0
:10114C003315B5008325C10323A0A5006F00C07B18
:10115C0003258103032505008355E1053355B5406F
:10116C008325C10323A0A5006F00007A032581030A
:10117C00032505008355E1053355B5408325C1038F
:10118C0023A0A5006F0040780325810303250500EB
:10119C008315E1053325B5008325C10323A0A500E4
:1011AC006F00807603258103032505008315E10577
:1011BC003335B5008325C10323A0A5006F00C0748F
:1011CC000315E1058325C10323A0A5006F00C0739F
:1011DC006F00807303258103032505001355F5016A
:1011EC008325C10323A0A5006F0000720325810392
:1011FC00032505003335A0008325C10323A0A500DA
:10120C006F0080700325810303250500133515003D
:10121C008325C10323A0A5006F00006F0325810364
:10122C0083250500130500003325B5008325C10374
:10123C0023A0A5006F00406D032581030325050045
:10124C008325C10323A0A5006F00006C8325C10377
:10125C001305000023A0A5006F00006B032581037C
:10126C0083250500130500003305B5408325C10314
:10127C0023A0A5006F004069032581030325050009
:10128C001345F5FF8325C10323A0A5006F00C0679C
:10129C00032541048325810383A505000316E1057D
:1012AC00B385C5003305B5002328A102032501032E
:1012BC00030505008325C10323A0A5006F00C064AE
:1012CC00032541048325810383A505000316E1054D
:1012DC00B385C5003305B5002326A1020325C10241
:1012EC00031505008325C10323A0A5006F00C06171
:1012FC00032541048325810383A505000316E1051D
:10130C00B385C5003305B5002324A1020325810252
:10131C00032505008325C10323A0A5006F00C05E33
:10132C00032541048325810383A505000316E105EC
:10133C00B385C5003305B5002322A1020325410264
:10134C00034505008325C10323A0A5006F00C05BE6
:10135C00032541048325810383A505000316E105BC
:10136C00B385C5003305B5002320A1020325010276
:10137C00035505008325C10323A0A5006F00C058A9
:10138C0003258105130545008325C10323A0A50072
:10139C0003258103032505008315E105939525009D
:1013AC003305B5001305C5FF9385018023A0A50463
:1013BC006F0080551305D2D0EFE01FF56F00C054BD
:1013CC001305C2D5EFE05FF46F0000546F00C053FB
:1013DC0003258103032505001305C5FF93850180B3
:1013EC0023A0A5046F004052032581051305450079
:1013FC008325C10323A0A500032581030325050034
:10140C001305C5FF9385018023A0A5046F00C04F71
:10141C000325C104032545001305C5FF93850180F1
:10142C0023A0A5046F00404E6F00004E6F00C04D0E
:10143C006F00804D6F00404D6F00004D6F00C04C31
:10144C006F00804C6F00404C6F00004C6F00C04B25
:10145C00032541048325410383A505000316E105FB
:10146C00B385C5003305B500232EA10003258103E8
:10147C00032505008325C1012380A5006F00C0480A
:10148C00032541048325410383A505000316E105CB
:10149C00B385C5003305B500232CA10003258103BA
:1014AC0003250500832581012390A5006F00C0450D
:1014BC00032541048325410383A505000316E1059B
:1014CC00B385C5003305B500232AA100032581038C
:1014DC00032505008325410123A0A5006F00C04210
:1014EC0003258103032505008325410383A50500FE
:1014FC006352B5026F0040000315E1051316250079
:10150C009385018003A505043305C50023A0A5041C
:10151C006F0040006F00403F0325810383250500C9
:10152C0003254103032505006342B5026F0040000B
:10153C000315E105131625009385018003A5050409
:10154C003305C50023A0A5046F0040006F00C03B0D
:10155C0003258103032505008325410383A505008D
:10156C006302B5026F0040000315E1051316250058
:10157C009385018003A505043305C50023A0A504AC
:10158C006F0040006F0040380325810303250500E0
:10159C008325410383A505006312B5026F0040004B
:1015AC000315E105131625009385018003A5050499
:1015BC003305C50023A0A5046F0040006F00C034A4
:1015CC0003258103032505008325410383A505001D
:1015DC006342B5026F0040000315E10513162500A8
:1015EC009385018003A505043305C50023A0A5043C
:1015FC006F0040006F0040310325810383250500F7
:10160C0003254103032505006352B5026F0040001A
:10161C000315E105131625009385018003A5050428
:10162C003305C50023A0A5046F0040006F00C02D3A
:10163C0003258103032505008325410383A50500AC
:10164C006372B5026F0040000315E1051316250007
:10165C009385018003A505043305C50023A0A504CB
:10166C006F0040006F00402A03258103832505008D
:10167C0003254103032505006362B5026F0040009A
:10168C000315E105131625009385018003A50504B8
:10169C003305C50023A0A5046F0040006F00C026D1
:1016AC0003258103032505008325410383A505003C
:1016BC006362B5026F0040000315E10513162500A7
:1016CC009385018003A505043305C50023A0A5045B
:1016DC006F0040006F004023032581038325050024
:1016EC0003254103032505006372B5026F0040001A
:1016FC000315E105131625009385018003A5050448
:10170C003305C50023A0A5046F0040006F00C01F67
:10171C000325810303250500930500006352B502E0
:10172C006F0040000315E105131625009385018019
:10173C0003A505043305C50023A0A5046F004000D4
:10174C006F00801C03258103832505001305000011
:10175C006342B5026F0040000315E1051316250026
:10176C009385018003A505043305C50023A0A504BA
:10177C006F0040006F00401903258103032505000D
:10178C00930500006302B5026F0040000315E105EC
:10179C00131625009385018003A505043305C500A8
:1017AC0023A0A5046F0040006F00001603258103E1
:1017BC0003250500930500006312B5026F0040007D
:1017CC000315E105131625009385018003A5050477
:1017DC003305C50023A0A5046F0040006F00C012A4
:1017EC000325810303250500930500006342B50220
:1017FC006F0040000315E105131625009385018049
:10180C0003A505043305C50023A0A5046F00400003
:10181C006F00800F0325810383250500130500004D
:10182C006352B5026F0040000315E1051316250045
:10183C009385018003A505043305C50023A0A504E9
:10184C006F0040006F00400C0315E10513150501F6
:10185C008325C10323A0A5006F00000B0315E10530
:10186C0013150501832581053305B5008325C103B7
:10187C0023A0A5006F004009032581051305450031
:10188C008325C10323A0A5000315E105131625002C
:10189C009385018003A505043305C50023A0A50489
:1018AC006F0080060315E105131625009385018052
:1018BC0003A505043305C50023A0A5046F00C004CF
:1018CC0003258105130545008325C10423A2A5002A
:1018DC000315E105131625009385018003A5050466
:1018EC003305C50023A0A5046F000002130592D692
:1018FC00EFE09FA00345310693051000EFE0DFA158
:10190C00EFE09FA06F0040000325C1040325850272
:10191C00232AA1049385018003A505041305450022
:10192C0023A0A5046FF0CFAA032541058320C1068F
:08193C001301010767800000A0
:10194400700E0020F8180020F8180020F818002065
:10195400F8180020F8180020F8180020F8180020C3
:10196400F8180020F8180020F8180020F8180020B3
:10197400F8180020F8180020F8180020F8180020A3
:10198400F8180020B4100020D0100020EC10002023
:101994000811002024110020401100205C110020B7
:1019A40078110020F818002094110020B0110020B4
:1019B400F8180020F8180020CC110020DC110020B9
:1019C400F8180020B40F0020D40F0020F40F0020DA
:1019D4001410002034100020541000207410002033
:1019E40094100020F8180020F8180020F81800209F
:1019F400F8180020F8180020F8180020F818002023
:101A0400F8180020740E0020940E0020B40E00205C
:101A1400D40E0020F40E0020140F0020340F0020F8
:101A2400540F0020F8180020740F0020940F002099
:101A3400F8180020F8180020F8180020F8180020E2
:101A4400D8130020F8180020C0130020F818002034
:101A54001C140020F8180020DC130020F8180020C3
:101A6400CC130020F8180020F8180020F8180020E3
:101A7400F4130020F8180020F81800208C1300201C
:101A8400F81800205C1400208C140020F8180020A2
:101A9400BC140020F8180020F8180020F8180020C2
:101AA400F8180020F8180020F8180020F818002072
:101AB400F8180020F8180020F8180020F818002062
:101AC400F8180020F8180020F8180020F818002052
:101AD400F8180020F8180020B0180020F81800208A
:101AE400F8180020F8180020F8180020F818002032
:101AF400CC180020F8180020F8180020F81800204E
:101B0400F818002054180020F8180020F8180020B5
:101B1400F8180020F8180020F8180020F818002001
:101B2400F8180020F818002068180020F818002081
:101B3400F8180020F8180020F81800208418002055
:101B4400F81800201C1700205017002084170020CC
:101B5400B8170020EC17002020180020F8180020E7
:101B6400F8180020F8180020F8180020F8180020B1
:101B7400F8180020F8180020F8180020F8180020A1
:101B8400F8180020F8180020F8180020F818002091
:101B9400F8180020F8180020F8180020F818002081
:101BA400F8180020F8180020F8180020F818002071
:101BB400F8180020F8180020F8180020F818002061
:101BC400F81800209C120020CC120020F8180020E5
:101BD400FC120020F8180020F8180020F818002043
:101BE400F8180020F8180020F81800202C13002002
:101BF400F81800205C130020F8180020F8180020C2
:101C0400F8180020EC140020241500205C15002096
:101C140094150020CC15002004160020F81800208C
:101C2400F8180020F81800203C1600207416002034
:101C3400AC160020E4160020F8180020F818002044
:101C4400F8180020E0110020F8180020F8110020F6
:101C540010120020F818002028120020F818002084
:101C6400F8180020F8180020F8180020F8180020B0
:101C7400F8180020F8180020F8180020F8180020A0
:101C840058120020F8180020F8180020F818002036
:101C9400F8180020F8180020F8180020F818002080
:101CA400F8180020F8180020F8180020F818002070
:101CB400F81800204412002068120020841200202A
:101CC400F81800204414002048140020F8180020BC
:101CD4004C140020F8180020F8180020F8180020F0
:101CE400F8180020F81800203C140020F8180020F0
:101CF40034140020F8180020381400204014002068
:101D0400F81800205014002054140020F818002063
:041D1400581400203F
:101D1800130101FC232E110213060000232CC1021B
:101D2800232AA1022328B102130520002326A1009B
:101D3800130540002324A1002322A1008325C1000C
:101D4800130532CFEF00C020832581001305A2E5DB
:101D5800EF00002083254100130532D4EF00401F17
:101D6800EFE08FE88320C1031301010467800000BE
:101D7800630006023306C5009307050003C7050084
:101D88009387170093851500A38FE7FEE398C7FE96
:041D98006780000060
:101D9C0093F5F50F3307C50093070500630806009C
:101DAC0093871700A38FB7FEE39CE7FE67800000C4
:101DBC0063F8A500130605001385050093050600BE
:101DCC009307050013050000638E070013F7170037
:101DDC0093D71700630407003305B50093951500DE
:081DEC00E39607FE678000008A
:101DF40013D6F541B3C5C500B386C540638C06044C
:101E04009355F5413346B600130706003345B50034
:101E1400B305B54013D51500138606006F00800086
:101E240013161600E37EC5FE130500006F00800044
:101E3400135616003305A50063E6C500B385C540F7
:101E440013051500E316D6FE3345E5003305E540DA
:0C1E54006780000013050000678000009C
:101E600013D6F541B3C5C500B386C54063880604E3
:101E70001357F5413345E500B305E54013D515008B
:101E8000138606006F00800013161600E37EC5FE61
:101E9000130500006F008000135616003305A500DF
:101EA00063E6C500B385C54013051500E316D6FEED
:101EB00033C5E5003305E5406780000013050000E9
:041EC0006780000037
:101EC4006380050413860500930605001355150069
:101ED4006F00800013161600E37EC5FE1305000094
:101EE4006F008000135616001315150063E6C60034
:101EF400B386C64013051500E316B6FE67800000DE
:081F04001305000067800000D6
:101F0C00638205041386050093060500135515001E
:101F1C006F00800013161600E37EC5FE130500004B
:101F2C006F008000135616001315150063E6C600EB
:101F3C00B386C64013051500E316B6FE13850600DE
:0C1F4C00678000001305000067800000A3
:101F5800130101FC2322B102232AF1029305C100D7
:101F680093074102232E11002324C1022326D10204
:101F78002328E102232C0103232E11032326F10039
:101F8800EF0000018320C1011301010467800000F4
:101F9800130101FE130705009387050013050004CC
:101FA80093058100232E11002324E1002326F1004C
:101FB800EF0040018320C101130101026780000086
:041FC800678000002E
:041FCC006FF0DFFFD4
:101FD000130101FC2320110023225100232461005E
:101FE000232671002328A100232AB100232CC1003D
:101FF000232ED1002320E1022322F1022324010316
:10200000232611032328C103232AD103232CE10310
:10201000232EF10373252034F3251034130342CD0E
:10202000E700030073101534832001008322410070
:10203000032381008323C10003250101832541017E
:10204000032681018326C101032701028327410260
:10205000032881028328C102032E0103832E41033A
:10206000032F8103832FC103130101047300203068
:042070006F000000FD
:042074006780000081
:072078006F72692031360090
:0A207F00736C6C692073726C6900C9
:062089006C6920313600F5
:10208F0053697A65206F662073686F72743A2025E2
:0A209F007A752062797465730A00F7
:0E20A900202073797374656D2063616C6C0088
:0520B700737261690075
:0920BC00636C7469752031360073
:1020C5000A54657374206661696C733A2025640A45
:0120D500000A
:0920D6002564203A2025730A005C
:1020DF0053697A65206F66206C6F6E673A20257A98
:0920EF00752062797465730A0022
:0D20F8002020627265616B706F696E74006C
:10210500556E6B6E6F776E206F70636F64653A20E6
:0121150000C9
:042116006E6F700078
:08211A006164646920313600A4
:0821220073756269203136007B
:08212A00786F72692031360064
:08213200616E64692031360082
:08213A00636C7469203136006A
:0C2142006C69202D20667573696F6E00BB
:10214E0011AA000811AA000211AAFFF411AA000296
:10215E0011AAF00011AA9C4011AA73C011AA300056
:0C216E0011AA300011AA900011AA100064
:10217A0011A0000811AA000212AA000C11AA00025A
:10218A0012AAFFE812AA003012AAFFE811AA300028
:0C219A0011AA300012AA700011AA100057
:1021A60011AA88881AAA999912AA000111AA008868
:1021B6001AAA009911AAFFFF11AAFFE71AAAFFF0AF
:0421C60011AAFFFF5C
:1021CA001EA0000811AA000211AAFFF411AA000217
:1021DA001EA0F00011AA9C4011AA73C01EA03000D4
:0C21EA0011AA300011AA900011AA1000E8
:1021F60053697A65206F6620696E743A20257A7570
:082206002062797465730A007F
:10221000032504008325440013048400638A050019
:1022200023000500130515009385F5FFE39A05FECD
:0422300067800000C3
:1022340017E5FF5F1305C5F397E5FF5F9385453306
:10224400B385A5402320A500232205006780000054
:1022540010220020000000806C01000034220020C5
:042264004000002016
:0400000520000000D7
:00000001FF
